{
  "transactions": [
    {
      "hash": "0x6e5a4528dd60077b601aa2fb2b6d555e6c5423d899102586ae1f19bac8ac4fe9",
      "transactionType": "CALL",
      "contractName": null,
      "contractAddress": "0x2f18ca7477a824b0770734a63a6499f18acb2745",
      "function": "approve(address,uint256)",
      "arguments": [
        "0xb47a953C75548010f89fA1F13F641f6A4Acc27a7",
        "1000000000000000000000"
      ],
      "transaction": {
        "from": "0xf25b81e83f5fb89ddeb59c8d1be8232694100f8b",
        "to": "0x2f18ca7477a824b0770734a63a6499f18acb2745",
        "gas": "0x108f4",
        "value": "0x0",
        "input": "0x095ea7b3000000000000000000000000b47a953c75548010f89fa1f13f641f6a4acc27a700000000000000000000000000000000000000000000003635c9adc5dea00000",
        "nonce": "0x2",
        "chainId": "0xaa36a7"
      },
      "additionalContracts": [],
      "isFixedGasLimit": false
    },
    {
      "hash": "0x0ec65bbef0c6e378dac3de23c1e24a5dc0638f5426a5b6c2e49838d06d556f6f",
      "transactionType": "CALL",
      "contractName": null,
      "contractAddress": "0xb47a953c75548010f89fa1f13f641f6a4acc27a7",
      "function": "stake(uint256)",
      "arguments": [
        "1000000000000000000000"
      ],
      "transaction": {
        "from": "0xf25b81e83f5fb89ddeb59c8d1be8232694100f8b",
        "to": "0xb47a953c75548010f89fa1f13f641f6a4acc27a7",
        "gas": "0x2b2b0",
        "value": "0x0",
        "input": "0xa694fc3a00000000000000000000000000000000000000000000003635c9adc5dea00000",
        "nonce": "0x3",
        "chainId": "0xaa36a7"
      },
      "additionalContracts": [],
      "isFixedGasLimit": false
    },
    {
      "hash": "0xda8d6644f5dced7f576e9d2cda2d4e6afedad64134af828556aacd47f64a4b4c",
      "transactionType": "CALL",
      "contractName": null,
      "contractAddress": "0xb47a953c75548010f89fa1f13f641f6a4acc27a7",
      "function": "claimReward()",
      "arguments": [],
      "transaction": {
        "from": "0xf25b81e83f5fb89ddeb59c8d1be8232694100f8b",
        "to": "0xb47a953c75548010f89fa1f13f641f6a4acc27a7",
        "gas": "0xac20",
        "value": "0x0",
        "input": "0xb88a802f",
        "nonce": "0x4",
        "chainId": "0xaa36a7"
      },
      "additionalContracts": [],
      "isFixedGasLimit": false
    },
    {
      "hash": "0xda9e4b82707c2254f3b3901032ae0a777f9a6366b1443c4f264fa2437ef5db47",
      "transactionType": "CALL",
      "contractName": null,
      "contractAddress": "0xb47a953c75548010f89fa1f13f641f6a4acc27a7",
      "function": "withdraw(uint256)",
      "arguments": [
        "1000000000000000000000"
      ],
      "transaction": {
        "from": "0xf25b81e83f5fb89ddeb59c8d1be8232694100f8b",
        "to": "0xb47a953c75548010f89fa1f13f641f6a4acc27a7",
        "gas": "0x10ded",
        "value": "0x0",
        "input": "0x2e1a7d4d00000000000000000000000000000000000000000000003635c9adc5dea00000",
        "nonce": "0x5",
        "chainId": "0xaa36a7"
      },
      "additionalContracts": [],
      "isFixedGasLimit": false
    }
  ],
  "receipts": [
    {
      "status": "0x1",
      "cumulativeGasUsed": "0x7f902b",
      "logs": [
        {
          "address": "0x2f18ca7477a824b0770734a63a6499f18acb2745",
          "topics": [
            "0x8c5be1e5ebec7d5bd14f71427d1e84f3dd0314c0f7b2291e5b200ac8c7c3b925",
            "0x000000000000000000000000f25b81e83f5fb89ddeb59c8d1be8232694100f8b",
            "0x000000000000000000000000b47a953c75548010f89fa1f13f641f6a4acc27a7"
          ],
          "data": "0x00000000000000000000000000000000000000000000003635c9adc5dea00000",
          "blockHash": "0x5d0624025370d445cb49443483f148d811d5fe28096cfecaacca0b4165269b5c",
          "blockNumber": "0x905132",
          "blockTimestamp": "0x68f74b84",
          "transactionHash": "0x6e5a4528dd60077b601aa2fb2b6d555e6c5423d899102586ae1f19bac8ac4fe9",
          "transactionIndex": "0x47",
          "logIndex": "0x53",
          "removed": false
        }
      ],
      "logsBloom": "0x00000000000000000000000000000000000000000000000000000000000000000000000000000000000000000000000000400000000000000000000010200000000000000000000000000000000000000000000000000040010000000000000000000000000000000000000000000000000000000000000000000000000000000000000000000000000000000001000000000000000000000000000000000000020000000000000000000000000000000001000000000000000200000000000000000000000000000000020000000000000000000000000000000000000000000010000000000000000000000000000000000000000000000000000000000004",
      "type": "0x2",
      "transactionHash": "0x6e5a4528dd60077b601aa2fb2b6d555e6c5423d899102586ae1f19bac8ac4fe9",
      "transactionIndex": "0x47",
      "blockHash": "0x5d0624025370d445cb49443483f148d811d5fe28096cfecaacca0b4165269b5c",
      "blockNumber": "0x905132",
      "gasUsed": "0xb52b",
      "effectiveGasPrice": "0xf424a",
      "from": "0xf25b81e83f5fb89ddeb59c8d1be8232694100f8b",
      "to": "0x2f18ca7477a824b0770734a63a6499f18acb2745",
      "contractAddress": null
    },
    {
      "status": "0x1",
      "cumulativeGasUsed": "0x818438",
      "logs": [
        {
          "address": "0x2f18ca7477a824b0770734a63a6499f18acb2745",
          "topics": [
            "0xddf252ad1be2c89b69c2b068fc378daa952ba7f163c4a11628f55a4df523b3ef",
            "0x000000000000000000000000f25b81e83f5fb89ddeb59c8d1be8232694100f8b",
            "0x000000000000000000000000b47a953c75548010f89fa1f13f641f6a4acc27a7"
          ],
          "data": "0x00000000000000000000000000000000000000000000003635c9adc5dea00000",
          "blockHash": "0x5d0624025370d445cb49443483f148d811d5fe28096cfecaacca0b4165269b5c",
          "blockNumber": "0x905132",
          "blockTimestamp": "0x68f74b84",
          "transactionHash": "0x0ec65bbef0c6e378dac3de23c1e24a5dc0638f5426a5b6c2e49838d06d556f6f",
          "transactionIndex": "0x48",
          "logIndex": "0x54",
          "removed": false
        },
        {
          "address": "0xb47a953c75548010f89fa1f13f641f6a4acc27a7",
          "topics": [
            "0x9e71bc8eea02a63969f509818f2dafb9254532904319f9dbda79b67bd34a5f3d",
            "0x000000000000000000000000f25b81e83f5fb89ddeb59c8d1be8232694100f8b"
          ],
          "data": "0x00000000000000000000000000000000000000000000003635c9adc5dea00000",
          "blockHash": "0x5d0624025370d445cb49443483f148d811d5fe28096cfecaacca0b4165269b5c",
          "blockNumber": "0x905132",
          "blockTimestamp": "0x68f74b84",
          "transactionHash": "0x0ec65bbef0c6e378dac3de23c1e24a5dc0638f5426a5b6c2e49838d06d556f6f",
          "transactionIndex": "0x48",
          "logIndex": "0x55",
          "removed": false
        }
      ],
      "logsBloom": "0x00000000000000000000000000000000000000000800000000000000000000000080000000000000000000000000000000400000000000000020000010000000000000000000000000000008000000000000000000000040010000000000000040000000000000000008000000000000000000000000000000000010000000000000000000000000000000000001000000000000000000000000000000000000000000000000000000000000000000000001000000000000000200000000000000000002000000000000020000000000000000000000000000000000040000000000000000000000000000000000000000000000000000000000000000000004",
      "type": "0x2",
      "transactionHash": "0x0ec65bbef0c6e378dac3de23c1e24a5dc0638f5426a5b6c2e49838d06d556f6f",
      "transactionIndex": "0x48",
      "blockHash": "0x5d0624025370d445cb49443483f148d811d5fe28096cfecaacca0b4165269b5c",
      "blockNumber": "0x905132",
      "gasUsed": "0x1f40d",
      "effectiveGasPrice": "0xf424a",
      "from": "0xf25b81e83f5fb89ddeb59c8d1be8232694100f8b",
      "to": "0xb47a953c75548010f89fa1f13f641f6a4acc27a7",
      "contractAddress": null
    },
    {
      "status": "0x1",
      "cumulativeGasUsed": "0x8994c1",
      "logs": [
        {
          "address": "0xb47a953c75548010f89fa1f13f641f6a4acc27a7",
          "topics": [
            "0x106f923f993c2149d49b4255ff723acafa1f2d94393f561d3eda32ae348f7241",
            "0x000000000000000000000000f25b81e83f5fb89ddeb59c8d1be8232694100f8b"
          ],
          "data": "0x0000000000000000000000000000000000000000000000000000000000000000",
          "blockHash": "0x5d0624025370d445cb49443483f148d811d5fe28096cfecaacca0b4165269b5c",
          "blockNumber": "0x905132",
          "blockTimestamp": "0x68f74b84",
          "transactionHash": "0xda8d6644f5dced7f576e9d2cda2d4e6afedad64134af828556aacd47f64a4b4c",
          "transactionIndex": "0x58",
          "logIndex": "0x63",
          "removed": false
        }
      ],
      "logsBloom": "0x00000000000000000000000000000000000000000000000000000000000000000080000000000000000000000000000000000000000000000020000000000000000000000000000000000000000000000000000000008040000000000000000000000000000000000000000000000000000000000000000080000000000000000000000000000000000000000000000000000000000000000000000000000000000000000000000000000000000000000001000000000000000000000000000000000000000000000000000010000000000000000000000000000000040000000000000000000000000000000000000000000000000000000000000000000004",
      "type": "0x2",
      "transactionHash": "0xda8d6644f5dced7f576e9d2cda2d4e6afedad64134af828556aacd47f64a4b4c",
      "transactionIndex": "0x58",
      "blockHash": "0x5d0624025370d445cb49443483f148d811d5fe28096cfecaacca0b4165269b5c",
      "blockNumber": "0x905132",
      "gasUsed": "0x7c9f",
      "effectiveGasPrice": "0xf424a",
      "from": "0xf25b81e83f5fb89ddeb59c8d1be8232694100f8b",
      "to": "0xb47a953c75548010f89fa1f13f641f6a4acc27a7",
      "contractAddress": null
    },
    {
      "status": "0x1",
      "cumulativeGasUsed": "0x8a4d52",
      "logs": [
        {
          "address": "0x2f18ca7477a824b0770734a63a6499f18acb2745",
          "topics": [
            "0xddf252ad1be2c89b69c2b068fc378daa952ba7f163c4a11628f55a4df523b3ef",
            "0x000000000000000000000000b47a953c75548010f89fa1f13f641f6a4acc27a7",
            "0x000000000000000000000000f25b81e83f5fb89ddeb59c8d1be8232694100f8b"
          ],
          "data": "0x00000000000000000000000000000000000000000000003635c9adc5dea00000",
          "blockHash": "0x5d0624025370d445cb49443483f148d811d5fe28096cfecaacca0b4165269b5c",
          "blockNumber": "0x905132",
          "blockTimestamp": "0x68f74b84",
          "transactionHash": "0xda9e4b82707c2254f3b3901032ae0a777f9a6366b1443c4f264fa2437ef5db47",
          "transactionIndex": "0x59",
          "logIndex": "0x64",
          "removed": false
        },
        {
          "address": "0xb47a953c75548010f89fa1f13f641f6a4acc27a7",
          "topics": [
            "0x7084f5476618d8e60b11ef0d7d3f06914655adb8793e28ff7f018d4c76d505d5",
            "0x000000000000000000000000f25b81e83f5fb89ddeb59c8d1be8232694100f8b"
          ],
          "data": "0x00000000000000000000000000000000000000000000003635c9adc5dea00000",
          "blockHash": "0x5d0624025370d445cb49443483f148d811d5fe28096cfecaacca0b4165269b5c",
          "blockNumber": "0x905132",
          "blockTimestamp": "0x68f74b84",
          "transactionHash": "0xda9e4b82707c2254f3b3901032ae0a777f9a6366b1443c4f264fa2437ef5db47",
          "transactionIndex": "0x59",
          "logIndex": "0x65",
          "removed": false
        }
      ],
      "logsBloom": "0x00000000000000000000000000000000000000000000000000000000000000000080000000000000000000000000000000400000000000000020000010000000000000000000000000000008000000000000000000000044010000000000000000000000000000000000000000000000000000000000000000000010000000000000000000000000000100000001000000000000000000000000000000000000000000000000000000000000000000000001000000000000000200000000000000000002000200000000020000000000000000000000000000000000040000000000000000000000000000000000000000000000000000000000000000000004",
      "type": "0x2",
      "transactionHash": "0xda9e4b82707c2254f3b3901032ae0a777f9a6366b1443c4f264fa2437ef5db47",
      "transactionIndex": "0x59",
      "blockHash": "0x5d0624025370d445cb49443483f148d811d5fe28096cfecaacca0b4165269b5c",
      "blockNumber": "0x905132",
      "gasUsed": "0xb891",
      "effectiveGasPrice": "0xf424a",
      "from": "0xf25b81e83f5fb89ddeb59c8d1be8232694100f8b",
      "to": "0xb47a953c75548010f89fa1f13f641f6a4acc27a7",
      "contractAddress": null
    }
  ],
  "libraries": [],
  "pending": [],
  "returns": {},
  "timestamp": 1761037189698,
  "chain": 11155111,
  "commit": "b019781"
}