{
  "transactions": [
    {
      "hash": "0x5c7a6be76e7a7c53ea564f5730a905944e747310b4087891a6378e426be6242a",
      "transactionType": "CALL",
      "contractName": null,
      "contractAddress": "0xe8174d551fd69c9ec98a09033c0885a2efbeb52c",
      "function": "transfer(address,uint256)",
      "arguments": [
        "0xF035E4D39503C551B1503D7ee1E29826f80cf4b3",
        "10000000000000000000000"
      ],
      "transaction": {
        "from": "0xf25b81e83f5fb89ddeb59c8d1be8232694100f8b",
        "to": "0xe8174d551fd69c9ec98a09033c0885a2efbeb52c",
        "gas": "0xa035",
        "value": "0x0",
        "input": "0xa9059cbb000000000000000000000000f035e4d39503c551b1503d7ee1e29826f80cf4b300000000000000000000000000000000000000000000021e19e0c9bab2400000",
        "nonce": "0x2e",
        "chainId": "0xaa36a7"
      },
      "additionalContracts": [],
      "isFixedGasLimit": false
    }
  ],
  "receipts": [
    {
      "status": "0x1",
      "cumulativeGasUsed": "0x9b2778",
      "logs": [
        {
          "address": "0xe8174d551fd69c9ec98a09033c0885a2efbeb52c",
          "topics": [
            "0xddf252ad1be2c89b69c2b068fc378daa952ba7f163c4a11628f55a4df523b3ef",
            "0x000000000000000000000000f25b81e83f5fb89ddeb59c8d1be8232694100f8b",
            "0x000000000000000000000000f035e4d39503c551b1503d7ee1e29826f80cf4b3"
          ],
          "data": "0x00000000000000000000000000000000000000000000021e19e0c9bab2400000",
          "blockHash": "0x9719848c015b6d27f265009e8379c65f64f1803a19ad5f48516e0e389be1f0b0",
          "blockNumber": "0x906b09",
          "blockTimestamp": "0x68f89200",
          "transactionHash": "0x5c7a6be76e7a7c53ea564f5730a905944e747310b4087891a6378e426be6242a",
          "transactionIndex": "0x48",
          "logIndex": "0x86",
          "removed": false
        }
      ],
      "logsBloom": "0x00000000000000000000000000000000000000000000000000000000000000000000000000000000000000000000000000000000000000000000000000000000000000000020000000000008000000000000000000000040000000000000000000000000000000000000000000000000000010000040000000000010000000000000000000000000000000000000000000000000000000000000000000000000000000000001000000000000000000000001000000000000000000000000000000000002000000000000000000000000000000000000000000000000000000000000002000000000000000000000000000000200000000000000000000000004",
      "type": "0x2",
      "transactionHash": "0x5c7a6be76e7a7c53ea564f5730a905944e747310b4087891a6378e426be6242a",
      "transactionIndex": "0x48",
      "blockHash": "0x9719848c015b6d27f265009e8379c65f64f1803a19ad5f48516e0e389be1f0b0",
      "blockNumber": "0x906b09",
      "gasUsed": "0x73fe",
      "effectiveGasPrice": "0xf4244",
      "from": "0xf25b81e83f5fb89ddeb59c8d1be8232694100f8b",
      "to": "0xe8174d551fd69c9ec98a09033c0885a2efbeb52c",
      "contractAddress": null
    }
  ],
  "libraries": [],
  "pending": [],
  "returns": {},
  "timestamp": 1761120769504,
  "chain": 11155111,
  "commit": "b019781"
}