{
  "transactions": [
    {
      "hash": "0xe6d379fb6f3433d3373d897fb7f749a106de7ef03da9c036dfbebb5e83cb131c",
      "transactionType": "CALL",
      "contractName": null,
      "contractAddress": "0x2f18ca7477a824b0770734a63a6499f18acb2745",
      "function": "transfer(address,uint256)",
      "arguments": [
        "0xb47a953C75548010f89fA1F13F641f6A4Acc27a7",
        "10000000000000000000000"
      ],
      "transaction": {
        "from": "0xf25b81e83f5fb89ddeb59c8d1be8232694100f8b",
        "to": "0x2f18ca7477a824b0770734a63a6499f18acb2745",
        "gas": "0xc54f",
        "value": "0x0",
        "input": "0xa9059cbb000000000000000000000000b47a953c75548010f89fa1f13f641f6a4acc27a700000000000000000000000000000000000000000000021e19e0c9bab2400000",
        "nonce": "0xc",
        "chainId": "0xaa36a7"
      },
      "additionalContracts": [],
      "isFixedGasLimit": false
    }
  ],
  "receipts": [
    {
      "status": "0x1",
      "cumulativeGasUsed": "0xad5257",
      "logs": [
        {
          "address": "0x2f18ca7477a824b0770734a63a6499f18acb2745",
          "topics": [
            "0xddf252ad1be2c89b69c2b068fc378daa952ba7f163c4a11628f55a4df523b3ef",
            "0x000000000000000000000000f25b81e83f5fb89ddeb59c8d1be8232694100f8b",
            "0x000000000000000000000000b47a953c75548010f89fa1f13f641f6a4acc27a7"
          ],
          "data": "0x00000000000000000000000000000000000000000000021e19e0c9bab2400000",
          "blockHash": "0x2c7bf0928b4cc3f0c64914c4fcc6e666e33cb883979f34d0ff7373f5759d657b",
          "blockNumber": "0x90560a",
          "blockTimestamp": "0x68f789c4",
          "transactionHash": "0xe6d379fb6f3433d3373d897fb7f749a106de7ef03da9c036dfbebb5e83cb131c",
          "transactionIndex": "0x62",
          "logIndex": "0x76",
          "removed": false
        }
      ],
      "logsBloom": "0x00000000000000000000000000000000000000000000000000000000000000000000000000000000000000000000000000400000000000000000000010000000000000000000000000000008000000000000000000000040010000000000000000000000000000000000000000000000000000000000000000000010000000000000000000000000000000000001000000000000000000000000000000000000000000000000000000000000000000000001000000000000000200000000000000000002000000000000020000000000000000000000000000000000000000000000000000000000000000000000000000000000000000000000000000000004",
      "type": "0x2",
      "transactionHash": "0xe6d379fb6f3433d3373d897fb7f749a106de7ef03da9c036dfbebb5e83cb131c",
      "transactionIndex": "0x62",
      "blockHash": "0x2c7bf0928b4cc3f0c64914c4fcc6e666e33cb883979f34d0ff7373f5759d657b",
      "blockNumber": "0x90560a",
      "gasUsed": "0x86ea",
      "effectiveGasPrice": "0xf424e",
      "from": "0xf25b81e83f5fb89ddeb59c8d1be8232694100f8b",
      "to": "0x2f18ca7477a824b0770734a63a6499f18acb2745",
      "contractAddress": null
    }
  ],
  "libraries": [],
  "pending": [],
  "returns": {},
  "timestamp": 1761053125107,
  "chain": 11155111,
  "commit": "b019781"
}